{
  "_format": "hh-sol-artifact-1",
  "contractName": "MyToken",
  "sourceName": "contracts/MyToken.sol",
  "abi": [
    {
      "inputs": [],
      "stateMutability": "nonpayable",
      "type": "constructor"
    },
    {
      "anonymous": false,
      "inputs": [
        {
          "indexed": true,
          "internalType": "address",
          "name": "owner",
          "type": "address"
        },
        {
          "indexed": true,
          "internalType": "address",
          "name": "spender",
          "type": "address"
        },
        {
          "indexed": false,
          "internalType": "uint256",
          "name": "value",
          "type": "uint256"
        }
      ],
      "name": "Approval",
      "type": "event"
    },
    {
      "anonymous": false,
      "inputs": [
        {
          "indexed": true,
          "internalType": "address",
          "name": "seller",
          "type": "address"
        },
        {
          "indexed": false,
          "internalType": "string",
          "name": "tokenId",
          "type": "string"
        },
        {
          "indexed": false,
          "internalType": "uint256",
          "name": "tokenPrice",
          "type": "uint256"
        },
        {
          "indexed": false,
          "internalType": "uint256",
          "name": "tokenSupply",
          "type": "uint256"
        }
      ],
      "name": "TokenListed",
      "type": "event"
    },
    {
      "anonymous": false,
      "inputs": [
        {
          "indexed": true,
          "internalType": "address",
          "name": "buyer",
          "type": "address"
        },
        {
          "indexed": false,
          "internalType": "string",
          "name": "tokenId",
          "type": "string"
        },
        {
          "indexed": false,
          "internalType": "uint256",
          "name": "tokenAmount",
          "type": "uint256"
        },
        {
          "indexed": false,
          "internalType": "uint256",
          "name": "pricePaid",
          "type": "uint256"
        }
      ],
      "name": "TokensBought",
      "type": "event"
    },
    {
      "anonymous": false,
      "inputs": [
        {
          "indexed": true,
          "internalType": "address",
          "name": "from",
          "type": "address"
        },
        {
          "indexed": true,
          "internalType": "address",
          "name": "to",
          "type": "address"
        },
        {
          "indexed": false,
          "internalType": "uint256",
          "name": "value",
          "type": "uint256"
        }
      ],
      "name": "Transfer",
      "type": "event"
    },
    {
      "inputs": [
        {
          "internalType": "string",
          "name": "",
          "type": "string"
        }
      ],
      "name": "_idToTokenDetails",
      "outputs": [
        {
          "internalType": "address payable",
          "name": "seller",
          "type": "address"
        },
        {
          "internalType": "address payable",
          "name": "buyer",
          "type": "address"
        },
        {
          "internalType": "uint256",
          "name": "tokenPrice",
          "type": "uint256"
        },
        {
          "internalType": "uint256",
          "name": "tokenSupply",
          "type": "uint256"
        },
        {
          "internalType": "uint256",
          "name": "NoOfTokensAmount",
          "type": "uint256"
        }
      ],
      "stateMutability": "view",
      "type": "function"
    },
    {
      "inputs": [
        {
          "internalType": "address",
          "name": "owner",
          "type": "address"
        },
        {
          "internalType": "address",
          "name": "spender",
          "type": "address"
        }
      ],
      "name": "allowance",
      "outputs": [
        {
          "internalType": "uint256",
          "name": "",
          "type": "uint256"
        }
      ],
      "stateMutability": "view",
      "type": "function"
    },
    {
      "inputs": [
        {
          "internalType": "address",
          "name": "spender",
          "type": "address"
        },
        {
          "internalType": "uint256",
          "name": "amount",
          "type": "uint256"
        }
      ],
      "name": "approve",
      "outputs": [
        {
          "internalType": "bool",
          "name": "",
          "type": "bool"
        }
      ],
      "stateMutability": "nonpayable",
      "type": "function"
    },
    {
      "inputs": [
        {
          "internalType": "address",
          "name": "account",
          "type": "address"
        }
      ],
      "name": "balanceOf",
      "outputs": [
        {
          "internalType": "uint256",
          "name": "",
          "type": "uint256"
        }
      ],
      "stateMutability": "view",
      "type": "function"
    },
    {
      "inputs": [
        {
          "internalType": "string",
          "name": "_tokenDetailsId",
          "type": "string"
        },
        {
          "internalType": "uint256",
          "name": "_noOfTokens",
          "type": "uint256"
        }
      ],
      "name": "buyTokens",
      "outputs": [],
      "stateMutability": "payable",
      "type": "function"
    },
    {
      "inputs": [],
      "name": "decimals",
      "outputs": [
        {
          "internalType": "uint8",
          "name": "",
          "type": "uint8"
        }
      ],
      "stateMutability": "view",
      "type": "function"
    },
    {
      "inputs": [
        {
          "internalType": "address",
          "name": "spender",
          "type": "address"
        },
        {
          "internalType": "uint256",
          "name": "subtractedValue",
          "type": "uint256"
        }
      ],
      "name": "decreaseAllowance",
      "outputs": [
        {
          "internalType": "bool",
          "name": "",
          "type": "bool"
        }
      ],
      "stateMutability": "nonpayable",
      "type": "function"
    },
    {
      "inputs": [
        {
          "internalType": "address",
          "name": "spender",
          "type": "address"
        },
        {
          "internalType": "uint256",
          "name": "addedValue",
          "type": "uint256"
        }
      ],
      "name": "increaseAllowance",
      "outputs": [
        {
          "internalType": "bool",
          "name": "",
          "type": "bool"
        }
      ],
      "stateMutability": "nonpayable",
      "type": "function"
    },
    {
      "inputs": [
        {
          "internalType": "string",
          "name": "_tokenDetailsId",
          "type": "string"
        },
        {
          "internalType": "uint256",
          "name": "_tokenPrice",
          "type": "uint256"
        },
        {
          "internalType": "uint256",
          "name": "_tokenSupply",
          "type": "uint256"
        }
      ],
      "name": "listToken",
      "outputs": [],
      "stateMutability": "nonpayable",
      "type": "function"
    },
    {
      "inputs": [],
      "name": "maxTotalSupply",
      "outputs": [
        {
          "internalType": "uint256",
          "name": "",
          "type": "uint256"
        }
      ],
      "stateMutability": "view",
      "type": "function"
    },
    {
      "inputs": [],
      "name": "name",
      "outputs": [
        {
          "internalType": "string",
          "name": "",
          "type": "string"
        }
      ],
      "stateMutability": "view",
      "type": "function"
    },
    {
      "inputs": [],
      "name": "owner",
      "outputs": [
        {
          "internalType": "address payable",
          "name": "",
          "type": "address"
        }
      ],
      "stateMutability": "view",
      "type": "function"
    },
    {
      "inputs": [],
      "name": "symbol",
      "outputs": [
        {
          "internalType": "string",
          "name": "",
          "type": "string"
        }
      ],
      "stateMutability": "view",
      "type": "function"
    },
    {
      "inputs": [],
      "name": "totalSupply",
      "outputs": [
        {
          "internalType": "uint256",
          "name": "",
          "type": "uint256"
        }
      ],
      "stateMutability": "view",
      "type": "function"
    },
    {
      "inputs": [
        {
          "internalType": "address",
          "name": "to",
          "type": "address"
        },
        {
          "internalType": "uint256",
          "name": "amount",
          "type": "uint256"
        }
      ],
      "name": "transfer",
      "outputs": [
        {
          "internalType": "bool",
          "name": "",
          "type": "bool"
        }
      ],
      "stateMutability": "nonpayable",
      "type": "function"
    },
    {
      "inputs": [
        {
          "internalType": "address",
          "name": "from",
          "type": "address"
        },
        {
          "internalType": "address",
          "name": "to",
          "type": "address"
        },
        {
          "internalType": "uint256",
          "name": "amount",
          "type": "uint256"
        }
      ],
      "name": "transferFrom",
      "outputs": [
        {
          "internalType": "bool",
          "name": "",
          "type": "bool"
        }
      ],
      "stateMutability": "nonpayable",
      "type": "function"
    }
  ],
  "bytecode": "0x608060405269d3c21bcecceda10000006007553480156200001f57600080fd5b506040518060400160405280600a81526020017f5265616c74546f6b656e000000000000000000000000000000000000000000008152506040518060400160405280600381526020017f524c54000000000000000000000000000000000000000000000000000000000081525081600390816200009d91906200037b565b508060049081620000af91906200037b565b505050600160058190555033600660006101000a81548173ffffffffffffffffffffffffffffffffffffffff021916908373ffffffffffffffffffffffffffffffffffffffff16021790555062000462565b600081519050919050565b7f4e487b7100000000000000000000000000000000000000000000000000000000600052604160045260246000fd5b7f4e487b7100000000000000000000000000000000000000000000000000000000600052602260045260246000fd5b600060028204905060018216806200018357607f821691505b6020821081036200019957620001986200013b565b5b50919050565b60008190508160005260206000209050919050565b60006020601f8301049050919050565b600082821b905092915050565b600060088302620002037fffffffffffffffffffffffffffffffffffffffffffffffffffffffffffffffff82620001c4565b6200020f8683620001c4565b95508019841693508086168417925050509392505050565b6000819050919050565b6000819050919050565b60006200025c62000256620002508462000227565b62000231565b62000227565b9050919050565b6000819050919050565b62000278836200023b565b62000290620002878262000263565b848454620001d1565b825550505050565b600090565b620002a762000298565b620002b48184846200026d565b505050565b5b81811015620002dc57620002d06000826200029d565b600181019050620002ba565b5050565b601f8211156200032b57620002f5816200019f565b6200030084620001b4565b8101602085101562000310578190505b620003286200031f85620001b4565b830182620002b9565b50505b505050565b600082821c905092915050565b6000620003506000198460080262000330565b1980831691505092915050565b60006200036b83836200033d565b9150826002028217905092915050565b620003868262000101565b67ffffffffffffffff811115620003a257620003a16200010c565b5b620003ae82546200016a565b620003bb828285620002e0565b600060209050601f831160018114620003f35760008415620003de578287015190505b620003ea85826200035d565b8655506200045a565b601f19841662000403866200019f565b60005b828110156200042d5784890151825560018201915060208501945060208101905062000406565b868310156200044d578489015162000449601f8916826200033d565b8355505b6001600288020188555050505b505050505050565b61200480620004726000396000f3fe6080604052600436106100f35760003560e01c80637391b5d51161008a578063a457c2d711610059578063a457c2d714610358578063a9059cbb14610395578063dad7ae5a146103d2578063dd62ed3e146103ee576100f3565b80637391b5d5146102985780638da5cb5b146102c157806395d89b41146102ec57806397769bc114610317576100f3565b80632ab4d052116100c65780632ab4d052146101c8578063313ce567146101f3578063395093511461021e57806370a082311461025b576100f3565b806306fdde03146100f8578063095ea7b31461012357806318160ddd1461016057806323b872dd1461018b575b600080fd5b34801561010457600080fd5b5061010d61042b565b60405161011a9190611291565b60405180910390f35b34801561012f57600080fd5b5061014a6004803603810190610145919061135b565b6104bd565b60405161015791906113b6565b60405180910390f35b34801561016c57600080fd5b506101756104e0565b60405161018291906113e0565b60405180910390f35b34801561019757600080fd5b506101b260048036038101906101ad91906113fb565b6104ea565b6040516101bf91906113b6565b60405180910390f35b3480156101d457600080fd5b506101dd610519565b6040516101ea91906113e0565b60405180910390f35b3480156101ff57600080fd5b5061020861051f565b604051610215919061146a565b60405180910390f35b34801561022a57600080fd5b506102456004803603810190610240919061135b565b610528565b60405161025291906113b6565b60405180910390f35b34801561026757600080fd5b50610282600480360381019061027d9190611485565b61055f565b60405161028f91906113e0565b60405180910390f35b3480156102a457600080fd5b506102bf60048036038101906102ba91906115e7565b6105a7565b005b3480156102cd57600080fd5b506102d6610689565b6040516102e39190611677565b60405180910390f35b3480156102f857600080fd5b506103016106af565b60405161030e9190611291565b60405180910390f35b34801561032357600080fd5b5061033e60048036038101906103399190611692565b610741565b60405161034f9594939291906116db565b60405180910390f35b34801561036457600080fd5b5061037f600480360381019061037a919061135b565b6107cd565b60405161038c91906113b6565b60405180910390f35b3480156103a157600080fd5b506103bc60048036038101906103b7919061135b565b610844565b6040516103c991906113b6565b60405180910390f35b6103ec60048036038101906103e7919061172e565b610867565b005b3480156103fa57600080fd5b506104156004803603810190610410919061178a565b610aee565b60405161042291906113e0565b60405180910390f35b60606003805461043a906117f9565b80601f0160208091040260200160405190810160405280929190818152602001828054610466906117f9565b80156104b35780601f10610488576101008083540402835291602001916104b3565b820191906000526020600020905b81548152906001019060200180831161049657829003601f168201915b5050505050905090565b6000806104c8610b75565b90506104d5818585610b7d565b600191505092915050565b6000600254905090565b6000806104f5610b75565b9050610502858285610d46565b61050d858585610dd2565b60019150509392505050565b60075481565b60006012905090565b600080610533610b75565b90506105548185856105458589610aee565b61054f9190611859565b610b7d565b600191505092915050565b60008060008373ffffffffffffffffffffffffffffffffffffffff1673ffffffffffffffffffffffffffffffffffffffff168152602001908152602001600020549050919050565b60006008846040516105b991906118c9565b90815260200160405180910390209050338160000160006101000a81548173ffffffffffffffffffffffffffffffffffffffff021916908373ffffffffffffffffffffffffffffffffffffffff160217905550828160020181905550670de0b6b3a76400008261062991906118e0565b81600301819055503373ffffffffffffffffffffffffffffffffffffffff167f47c1c15fbb08e3b52ef254917fdacaf1ae95f8392c22f1f77ed23e805509779585858560405161067b93929190611922565b60405180910390a250505050565b600660009054906101000a900473ffffffffffffffffffffffffffffffffffffffff1681565b6060600480546106be906117f9565b80601f01602080910402602001604051908101604052809291908181526020018280546106ea906117f9565b80156107375780601f1061070c57610100808354040283529160200191610737565b820191906000526020600020905b81548152906001019060200180831161071a57829003601f168201915b5050505050905090565b6008818051602081018201805184825260208301602085012081835280955050505050506000915090508060000160009054906101000a900473ffffffffffffffffffffffffffffffffffffffff16908060010160009054906101000a900473ffffffffffffffffffffffffffffffffffffffff16908060020154908060030154908060040154905085565b6000806107d8610b75565b905060006107e68286610aee565b90508381101561082b576040517f08c379a0000000000000000000000000000000000000000000000000000000008152600401610822906119d2565b60405180910390fd5b6108388286868403610b7d565b60019250505092915050565b60008061084f610b75565b905061085c818585610dd2565b600191505092915050565b61086f611048565b600060088360405161088191906118c9565b9081526020016040518091039020905060008282600201546108a391906118e0565b905081600301548311156108ec576040517f08c379a00000000000000000000000000000000000000000000000000000000081526004016108e390611a3e565b60405180910390fd5b8034101561092f576040517f08c379a000000000000000000000000000000000000000000000000000000000815260040161092690611aaa565b60405180910390fd5b61094c33670de0b6b3a76400008561094791906118e0565b611097565b60008260000160009054906101000a900473ffffffffffffffffffffffffffffffffffffffff1673ffffffffffffffffffffffffffffffffffffffff168260405161099690611afb565b60006040518083038185875af1925050503d80600081146109d3576040519150601f19603f3d011682016040523d82523d6000602084013e6109d8565b606091505b5050905080610a1c576040517f08c379a0000000000000000000000000000000000000000000000000000000008152600401610a1390611b5c565b60405180910390fd5b338360010160006101000a81548173ffffffffffffffffffffffffffffffffffffffff021916908373ffffffffffffffffffffffffffffffffffffffff160217905550670de0b6b3a764000084610a7391906118e0565b836003016000828254610a869190611b7c565b925050819055503373ffffffffffffffffffffffffffffffffffffffff167ff3a46e8693715cfe1d857bbd91b1db706abccf1676a6709cbb9711e35cf1e76a868685604051610ad793929190611922565b60405180910390a2505050610aea6111ed565b5050565b6000600160008473ffffffffffffffffffffffffffffffffffffffff1673ffffffffffffffffffffffffffffffffffffffff16815260200190815260200160002060008373ffffffffffffffffffffffffffffffffffffffff1673ffffffffffffffffffffffffffffffffffffffff16815260200190815260200160002054905092915050565b600033905090565b600073ffffffffffffffffffffffffffffffffffffffff168373ffffffffffffffffffffffffffffffffffffffff1603610bec576040517f08c379a0000000000000000000000000000000000000000000000000000000008152600401610be390611c22565b60405180910390fd5b600073ffffffffffffffffffffffffffffffffffffffff168273ffffffffffffffffffffffffffffffffffffffff1603610c5b576040517f08c379a0000000000000000000000000000000000000000000000000000000008152600401610c5290611cb4565b60405180910390fd5b80600160008573ffffffffffffffffffffffffffffffffffffffff1673ffffffffffffffffffffffffffffffffffffffff16815260200190815260200160002060008473ffffffffffffffffffffffffffffffffffffffff1673ffffffffffffffffffffffffffffffffffffffff168152602001908152602001600020819055508173ffffffffffffffffffffffffffffffffffffffff168373ffffffffffffffffffffffffffffffffffffffff167f8c5be1e5ebec7d5bd14f71427d1e84f3dd0314c0f7b2291e5b200ac8c7c3b92583604051610d3991906113e0565b60405180910390a3505050565b6000610d528484610aee565b90507fffffffffffffffffffffffffffffffffffffffffffffffffffffffffffffffff8114610dcc5781811015610dbe576040517f08c379a0000000000000000000000000000000000000000000000000000000008152600401610db590611d20565b60405180910390fd5b610dcb8484848403610b7d565b5b50505050565b600073ffffffffffffffffffffffffffffffffffffffff168373ffffffffffffffffffffffffffffffffffffffff1603610e41576040517f08c379a0000000000000000000000000000000000000000000000000000000008152600401610e3890611db2565b60405180910390fd5b600073ffffffffffffffffffffffffffffffffffffffff168273ffffffffffffffffffffffffffffffffffffffff1603610eb0576040517f08c379a0000000000000000000000000000000000000000000000000000000008152600401610ea790611e44565b60405180910390fd5b610ebb8383836111f7565b60008060008573ffffffffffffffffffffffffffffffffffffffff1673ffffffffffffffffffffffffffffffffffffffff16815260200190815260200160002054905081811015610f41576040517f08c379a0000000000000000000000000000000000000000000000000000000008152600401610f3890611ed6565b60405180910390fd5b8181036000808673ffffffffffffffffffffffffffffffffffffffff1673ffffffffffffffffffffffffffffffffffffffff16815260200190815260200160002081905550816000808573ffffffffffffffffffffffffffffffffffffffff1673ffffffffffffffffffffffffffffffffffffffff168152602001908152602001600020600082825401925050819055508273ffffffffffffffffffffffffffffffffffffffff168473ffffffffffffffffffffffffffffffffffffffff167fddf252ad1be2c89b69c2b068fc378daa952ba7f163c4a11628f55a4df523b3ef8460405161102f91906113e0565b60405180910390a36110428484846111fc565b50505050565b60026005540361108d576040517f08c379a000000000000000000000000000000000000000000000000000000000815260040161108490611f42565b60405180910390fd5b6002600581905550565b600073ffffffffffffffffffffffffffffffffffffffff168273ffffffffffffffffffffffffffffffffffffffff1603611106576040517f08c379a00000000000000000000000000000000000000000000000000000000081526004016110fd90611fae565b60405180910390fd5b611112600083836111f7565b80600260008282546111249190611859565b92505081905550806000808473ffffffffffffffffffffffffffffffffffffffff1673ffffffffffffffffffffffffffffffffffffffff168152602001908152602001600020600082825401925050819055508173ffffffffffffffffffffffffffffffffffffffff16600073ffffffffffffffffffffffffffffffffffffffff167fddf252ad1be2c89b69c2b068fc378daa952ba7f163c4a11628f55a4df523b3ef836040516111d591906113e0565b60405180910390a36111e9600083836111fc565b5050565b6001600581905550565b505050565b505050565b600081519050919050565b600082825260208201905092915050565b60005b8381101561123b578082015181840152602081019050611220565b60008484015250505050565b6000601f19601f8301169050919050565b600061126382611201565b61126d818561120c565b935061127d81856020860161121d565b61128681611247565b840191505092915050565b600060208201905081810360008301526112ab8184611258565b905092915050565b6000604051905090565b600080fd5b600080fd5b600073ffffffffffffffffffffffffffffffffffffffff82169050919050565b60006112f2826112c7565b9050919050565b611302816112e7565b811461130d57600080fd5b50565b60008135905061131f816112f9565b92915050565b6000819050919050565b61133881611325565b811461134357600080fd5b50565b6000813590506113558161132f565b92915050565b60008060408385031215611372576113716112bd565b5b600061138085828601611310565b925050602061139185828601611346565b9150509250929050565b60008115159050919050565b6113b08161139b565b82525050565b60006020820190506113cb60008301846113a7565b92915050565b6113da81611325565b82525050565b60006020820190506113f560008301846113d1565b92915050565b600080600060608486031215611414576114136112bd565b5b600061142286828701611310565b935050602061143386828701611310565b925050604061144486828701611346565b9150509250925092565b600060ff82169050919050565b6114648161144e565b82525050565b600060208201905061147f600083018461145b565b92915050565b60006020828403121561149b5761149a6112bd565b5b60006114a984828501611310565b91505092915050565b600080fd5b600080fd5b7f4e487b7100000000000000000000000000000000000000000000000000000000600052604160045260246000fd5b6114f482611247565b810181811067ffffffffffffffff82111715611513576115126114bc565b5b80604052505050565b60006115266112b3565b905061153282826114eb565b919050565b600067ffffffffffffffff821115611552576115516114bc565b5b61155b82611247565b9050602081019050919050565b82818337600083830152505050565b600061158a61158584611537565b61151c565b9050828152602081018484840111156115a6576115a56114b7565b5b6115b1848285611568565b509392505050565b600082601f8301126115ce576115cd6114b2565b5b81356115de848260208601611577565b91505092915050565b600080600060608486031215611600576115ff6112bd565b5b600084013567ffffffffffffffff81111561161e5761161d6112c2565b5b61162a868287016115b9565b935050602061163b86828701611346565b925050604061164c86828701611346565b9150509250925092565b6000611661826112c7565b9050919050565b61167181611656565b82525050565b600060208201905061168c6000830184611668565b92915050565b6000602082840312156116a8576116a76112bd565b5b600082013567ffffffffffffffff8111156116c6576116c56112c2565b5b6116d2848285016115b9565b91505092915050565b600060a0820190506116f06000830188611668565b6116fd6020830187611668565b61170a60408301866113d1565b61171760608301856113d1565b61172460808301846113d1565b9695505050505050565b60008060408385031215611745576117446112bd565b5b600083013567ffffffffffffffff811115611763576117626112c2565b5b61176f858286016115b9565b925050602061178085828601611346565b9150509250929050565b600080604083850312156117a1576117a06112bd565b5b60006117af85828601611310565b92505060206117c085828601611310565b9150509250929050565b7f4e487b7100000000000000000000000000000000000000000000000000000000600052602260045260246000fd5b6000600282049050600182168061181157607f821691505b602082108103611824576118236117ca565b5b50919050565b7f4e487b7100000000000000000000000000000000000000000000000000000000600052601160045260246000fd5b600061186482611325565b915061186f83611325565b92508282019050808211156118875761188661182a565b5b92915050565b600081905092915050565b60006118a382611201565b6118ad818561188d565b93506118bd81856020860161121d565b80840191505092915050565b60006118d58284611898565b915081905092915050565b60006118eb82611325565b91506118f683611325565b925082820261190481611325565b9150828204841483151761191b5761191a61182a565b5b5092915050565b6000606082019050818103600083015261193c8186611258565b905061194b60208301856113d1565b61195860408301846113d1565b949350505050565b7f45524332303a2064656372656173656420616c6c6f77616e63652062656c6f7760008201527f207a65726f000000000000000000000000000000000000000000000000000000602082015250565b60006119bc60258361120c565b91506119c782611960565b604082019050919050565b600060208201905081810360008301526119eb816119af565b9050919050565b7f45786365656420746f6b656e20737570706c7900000000000000000000000000600082015250565b6000611a2860138361120c565b9150611a33826119f2565b602082019050919050565b60006020820190508181036000830152611a5781611a1b565b9050919050565b7f7472616e73656374696f6e206661696c65642031000000000000000000000000600082015250565b6000611a9460148361120c565b9150611a9f82611a5e565b602082019050919050565b60006020820190508181036000830152611ac381611a87565b9050919050565b600081905092915050565b50565b6000611ae5600083611aca565b9150611af082611ad5565b600082019050919050565b6000611b0682611ad8565b9150819050919050565b7f7472616e73656374696f6e206661696c65640000000000000000000000000000600082015250565b6000611b4660128361120c565b9150611b5182611b10565b602082019050919050565b60006020820190508181036000830152611b7581611b39565b9050919050565b6000611b8782611325565b9150611b9283611325565b9250828203905081811115611baa57611ba961182a565b5b92915050565b7f45524332303a20617070726f76652066726f6d20746865207a65726f2061646460008201527f7265737300000000000000000000000000000000000000000000000000000000602082015250565b6000611c0c60248361120c565b9150611c1782611bb0565b604082019050919050565b60006020820190508181036000830152611c3b81611bff565b9050919050565b7f45524332303a20617070726f766520746f20746865207a65726f20616464726560008201527f7373000000000000000000000000000000000000000000000000000000000000602082015250565b6000611c9e60228361120c565b9150611ca982611c42565b604082019050919050565b60006020820190508181036000830152611ccd81611c91565b9050919050565b7f45524332303a20696e73756666696369656e7420616c6c6f77616e6365000000600082015250565b6000611d0a601d8361120c565b9150611d1582611cd4565b602082019050919050565b60006020820190508181036000830152611d3981611cfd565b9050919050565b7f45524332303a207472616e736665722066726f6d20746865207a65726f20616460008201527f6472657373000000000000000000000000000000000000000000000000000000602082015250565b6000611d9c60258361120c565b9150611da782611d40565b604082019050919050565b60006020820190508181036000830152611dcb81611d8f565b9050919050565b7f45524332303a207472616e7366657220746f20746865207a65726f206164647260008201527f6573730000000000000000000000000000000000000000000000000000000000602082015250565b6000611e2e60238361120c565b9150611e3982611dd2565b604082019050919050565b60006020820190508181036000830152611e5d81611e21565b9050919050565b7f45524332303a207472616e7366657220616d6f756e742065786365656473206260008201527f616c616e63650000000000000000000000000000000000000000000000000000602082015250565b6000611ec060268361120c565b9150611ecb82611e64565b604082019050919050565b60006020820190508181036000830152611eef81611eb3565b9050919050565b7f5265656e7472616e637947756172643a207265656e7472616e742063616c6c00600082015250565b6000611f2c601f8361120c565b9150611f3782611ef6565b602082019050919050565b60006020820190508181036000830152611f5b81611f1f565b9050919050565b7f45524332303a206d696e7420746f20746865207a65726f206164647265737300600082015250565b6000611f98601f8361120c565b9150611fa382611f62565b602082019050919050565b60006020820190508181036000830152611fc781611f8b565b905091905056fea2646970667358221220890718758911246de441931fadf9fbf7e96acc5cbe4f720c7cf11b21f062ea7364736f6c63430008120033",
  "linkReferences": {},
  "deployedLinkReferences": {}
}